{
  "contractName": "Voting",
  "abi": [
    {
      "inputs": [],
      "stateMutability": "nonpayable",
      "type": "constructor"
    },
    {
      "anonymous": false,
      "inputs": [
        {
          "indexed": true,
          "internalType": "address",
          "name": "previousOwner",
          "type": "address"
        },
        {
          "indexed": true,
          "internalType": "address",
          "name": "newOwner",
          "type": "address"
        }
      ],
      "name": "OwnershipTransferred",
      "type": "event"
    },
    {
      "inputs": [
        {
          "internalType": "uint256",
          "name": "",
          "type": "uint256"
        }
      ],
      "name": "candidates",
      "outputs": [
        {
          "internalType": "uint256",
          "name": "id",
          "type": "uint256"
        },
        {
          "internalType": "string",
          "name": "name",
          "type": "string"
        }
      ],
      "stateMutability": "view",
      "type": "function",
      "constant": true
    },
    {
      "inputs": [],
      "name": "owner",
      "outputs": [
        {
          "internalType": "address",
          "name": "",
          "type": "address"
        }
      ],
      "stateMutability": "view",
      "type": "function",
      "constant": true
    },
    {
      "inputs": [],
      "name": "renounceOwnership",
      "outputs": [],
      "stateMutability": "nonpayable",
      "type": "function"
    },
    {
      "inputs": [
        {
          "internalType": "address",
          "name": "newOwner",
          "type": "address"
        }
      ],
      "name": "transferOwnership",
      "outputs": [],
      "stateMutability": "nonpayable",
      "type": "function"
    },
    {
      "inputs": [
        {
          "internalType": "address",
          "name": "",
          "type": "address"
        }
      ],
      "name": "voters",
      "outputs": [
        {
          "internalType": "bool",
          "name": "",
          "type": "bool"
        }
      ],
      "stateMutability": "view",
      "type": "function",
      "constant": true
    },
    {
      "inputs": [
        {
          "internalType": "uint256",
          "name": "",
          "type": "uint256"
        }
      ],
      "name": "votes",
      "outputs": [
        {
          "internalType": "uint256",
          "name": "candidateId",
          "type": "uint256"
        },
        {
          "internalType": "uint256",
          "name": "counter",
          "type": "uint256"
        }
      ],
      "stateMutability": "view",
      "type": "function",
      "constant": true
    },
    {
      "inputs": [
        {
          "internalType": "uint256",
          "name": "_candidate",
          "type": "uint256"
        }
      ],
      "name": "vote",
      "outputs": [],
      "stateMutability": "nonpayable",
      "type": "function"
    },
    {
      "inputs": [
        {
          "internalType": "uint256",
          "name": "_candidate",
          "type": "uint256"
        }
      ],
      "name": "countVotes",
      "outputs": [
        {
          "internalType": "uint256",
          "name": "",
          "type": "uint256"
        }
      ],
      "stateMutability": "view",
      "type": "function",
      "constant": true
    },
    {
      "inputs": [
        {
          "internalType": "uint256",
          "name": "_candidate",
          "type": "uint256"
        }
      ],
      "name": "validCandidate",
      "outputs": [
        {
          "internalType": "bool",
          "name": "",
          "type": "bool"
        }
      ],
      "stateMutability": "view",
      "type": "function",
      "constant": true
    },
    {
      "inputs": [
        {
          "internalType": "bool",
          "name": "isActive",
          "type": "bool"
        }
      ],
      "name": "setActivity",
      "outputs": [],
      "stateMutability": "nonpayable",
      "type": "function"
    }
  ],
  "bytecode": "0x60806040526001600460006101000a81548160ff0219169083151502179055503480156200002c57600080fd5b506200004d620000416200012b60201b60201c565b6200013360201b60201c565b6200009560016040518060400160405280600881526020017f4a6f686e20446f65000000000000000000000000000000000000000000000000815250620001f760201b60201c565b620000dd60026040518060400160405280600881526020017f4a616e6520446f65000000000000000000000000000000000000000000000000815250620001f760201b60201c565b6200012560036040518060400160405280600981526020017f47617279204a6566660000000000000000000000000000000000000000000000815250620001f760201b60201c565b62000370565b600033905090565b60008060009054906101000a900473ffffffffffffffffffffffffffffffffffffffff169050816000806101000a81548173ffffffffffffffffffffffffffffffffffffffff021916908373ffffffffffffffffffffffffffffffffffffffff1602179055508173ffffffffffffffffffffffffffffffffffffffff168173ffffffffffffffffffffffffffffffffffffffff167f8be0079c531659141344cd1fd0a4f28419497f9722a3daafe3b4186f6b6457e060405160405180910390a35050565b60405180604001604052808363ffffffff16815260200182815250600160008463ffffffff168152602001908152602001600020600082015181600001556020820151816001019080519060200190620002539291906200025b565b509050505050565b82805462000269906200030b565b90600052602060002090601f0160209004810192826200028d5760008555620002d9565b82601f10620002a857805160ff1916838001178555620002d9565b82800160010185558215620002d9579182015b82811115620002d8578251825591602001919060010190620002bb565b5b509050620002e89190620002ec565b5090565b5b8082111562000307576000816000905550600101620002ed565b5090565b600060028204905060018216806200032457607f821691505b602082108114156200033b576200033a62000341565b5b50919050565b7f4e487b7100000000000000000000000000000000000000000000000000000000600052602260045260246000fd5b610dba80620003806000396000f3fe608060405234801561001057600080fd5b506004361061009e5760003560e01c8063715018a611610066578063715018a6146101815780638da5cb5b1461018b5780639dd07254146101a9578063a3ec138d146101c5578063f2fde38b146101f55761009e565b80630121b93f146100a35780631840f0ca146100bf57806321b4bdde146100ef5780633477ee2e1461011f5780635df8133014610150575b600080fd5b6100bd60048036038101906100b891906108af565b610211565b005b6100d960048036038101906100d491906108af565b610386565b6040516100e69190610a80565b60405180910390f35b610109600480360381019061010491906108af565b6103ee565b60405161011691906109e5565b60405180910390f35b610139600480360381019061013491906108af565b610420565b604051610147929190610a9b565b60405180910390f35b61016a600480360381019061016591906108af565b6104cc565b604051610178929190610acb565b60405180910390f35b6101896104f0565b005b610193610578565b6040516101a091906109ca565b60405180910390f35b6101c360048036038101906101be9190610886565b6105a1565b005b6101df60048036038101906101da919061085d565b61063a565b6040516101ec91906109e5565b60405180910390f35b61020f600480360381019061020a919061085d565b61065a565b005b600460009054906101000a900460ff1661022a57600080fd5b610233816103ee565b610272576040517f08c379a000000000000000000000000000000000000000000000000000000000815260040161026990610a60565b60405180910390fd5b600360003373ffffffffffffffffffffffffffffffffffffffff1673ffffffffffffffffffffffffffffffffffffffff16815260200190815260200160002060009054906101000a900460ff16156102ff576040517f08c379a00000000000000000000000000000000000000000000000000000000081526004016102f690610a20565b60405180910390fd5b6001600360003373ffffffffffffffffffffffffffffffffffffffff1673ffffffffffffffffffffffffffffffffffffffff16815260200190815260200160002060006101000a81548160ff02191690831515021790555060026000828152602001908152602001600020600101600081548092919061037e90610bbd565b919050555050565b6000610391826103ee565b6103d0576040517f08c379a00000000000000000000000000000000000000000000000000000000081526004016103c790610a60565b60405180910390fd5b60026000838152602001908152602001600020600101549050919050565b600080600160008481526020019081526020016000206000015414610416576001905061041b565b600090505b919050565b600160205280600052604060002060009150905080600001549080600101805461044990610b8b565b80601f016020809104026020016040519081016040528092919081815260200182805461047590610b8b565b80156104c25780601f10610497576101008083540402835291602001916104c2565b820191906000526020600020905b8154815290600101906020018083116104a557829003601f168201915b5050505050905082565b60026020528060005260406000206000915090508060000154908060010154905082565b6104f8610752565b73ffffffffffffffffffffffffffffffffffffffff16610516610578565b73ffffffffffffffffffffffffffffffffffffffff161461056c576040517f08c379a000000000000000000000000000000000000000000000000000000000815260040161056390610a40565b60405180910390fd5b610576600061075a565b565b60008060009054906101000a900473ffffffffffffffffffffffffffffffffffffffff16905090565b6105a9610752565b73ffffffffffffffffffffffffffffffffffffffff166105c7610578565b73ffffffffffffffffffffffffffffffffffffffff161461061d576040517f08c379a000000000000000000000000000000000000000000000000000000000815260040161061490610a40565b60405180910390fd5b80600460006101000a81548160ff02191690831515021790555050565b60036020528060005260406000206000915054906101000a900460ff1681565b610662610752565b73ffffffffffffffffffffffffffffffffffffffff16610680610578565b73ffffffffffffffffffffffffffffffffffffffff16146106d6576040517f08c379a00000000000000000000000000000000000000000000000000000000081526004016106cd90610a40565b60405180910390fd5b600073ffffffffffffffffffffffffffffffffffffffff168173ffffffffffffffffffffffffffffffffffffffff161415610746576040517f08c379a000000000000000000000000000000000000000000000000000000000815260040161073d90610a00565b60405180910390fd5b61074f8161075a565b50565b600033905090565b60008060009054906101000a900473ffffffffffffffffffffffffffffffffffffffff169050816000806101000a81548173ffffffffffffffffffffffffffffffffffffffff021916908373ffffffffffffffffffffffffffffffffffffffff1602179055508173ffffffffffffffffffffffffffffffffffffffff168173ffffffffffffffffffffffffffffffffffffffff167f8be0079c531659141344cd1fd0a4f28419497f9722a3daafe3b4186f6b6457e060405160405180910390a35050565b60008135905061082d81610d3f565b92915050565b60008135905061084281610d56565b92915050565b60008135905061085781610d6d565b92915050565b60006020828403121561086f57600080fd5b600061087d8482850161081e565b91505092915050565b60006020828403121561089857600080fd5b60006108a684828501610833565b91505092915050565b6000602082840312156108c157600080fd5b60006108cf84828501610848565b91505092915050565b6108e181610b10565b82525050565b6108f081610b22565b82525050565b600061090182610af4565b61090b8185610aff565b935061091b818560208601610b58565b61092481610c64565b840191505092915050565b600061093c602683610aff565b915061094782610c75565b604082019050919050565b600061095f601d83610aff565b915061096a82610cc4565b602082019050919050565b6000610982602083610aff565b915061098d82610ced565b602082019050919050565b60006109a5601183610aff565b91506109b082610d16565b602082019050919050565b6109c481610b4e565b82525050565b60006020820190506109df60008301846108d8565b92915050565b60006020820190506109fa60008301846108e7565b92915050565b60006020820190508181036000830152610a198161092f565b9050919050565b60006020820190508181036000830152610a3981610952565b9050919050565b60006020820190508181036000830152610a5981610975565b9050919050565b60006020820190508181036000830152610a7981610998565b9050919050565b6000602082019050610a9560008301846109bb565b92915050565b6000604082019050610ab060008301856109bb565b8181036020830152610ac281846108f6565b90509392505050565b6000604082019050610ae060008301856109bb565b610aed60208301846109bb565b9392505050565b600081519050919050565b600082825260208201905092915050565b6000610b1b82610b2e565b9050919050565b60008115159050919050565b600073ffffffffffffffffffffffffffffffffffffffff82169050919050565b6000819050919050565b60005b83811015610b76578082015181840152602081019050610b5b565b83811115610b85576000848401525b50505050565b60006002820490506001821680610ba357607f821691505b60208210811415610bb757610bb6610c35565b5b50919050565b6000610bc882610b4e565b91507fffffffffffffffffffffffffffffffffffffffffffffffffffffffffffffffff821415610bfb57610bfa610c06565b5b600182019050919050565b7f4e487b7100000000000000000000000000000000000000000000000000000000600052601160045260246000fd5b7f4e487b7100000000000000000000000000000000000000000000000000000000600052602260045260246000fd5b6000601f19601f8301169050919050565b7f4f776e61626c653a206e6577206f776e657220697320746865207a65726f206160008201527f6464726573730000000000000000000000000000000000000000000000000000602082015250565b7f596f752063616e277420766f7465206d756c7469706c652074696d6573000000600082015250565b7f4f776e61626c653a2063616c6c6572206973206e6f7420746865206f776e6572600082015250565b7f496e76616c69642043616e646964617465000000000000000000000000000000600082015250565b610d4881610b10565b8114610d5357600080fd5b50565b610d5f81610b22565b8114610d6a57600080fd5b50565b610d7681610b4e565b8114610d8157600080fd5b5056fea2646970667358221220d3f42f0f04449b20d47fce0f70416c03e943e5da0a5d7fd0e4e1b91ec2f8deac64736f6c63430008010033",
  "immutableReferences": {},
  "source": "// SPDX-License-Identifier: MIT\n\npragma solidity ^0.8.0;\nimport \"@openzeppelin/contracts/access/Ownable.sol\";\n\ncontract Voting  is Ownable  {\n\n  // Structs acts as Model  \n  struct Candidate {\n    uint id;\n    string name;\n  }\n  struct votesReceived{\n    uint candidateId ;\n    uint256 counter; \n  }\n\n\n  /* mapping field is similar to hash tables in python or dict.*/\n  mapping(uint => Candidate) public candidates;\n  mapping(uint => votesReceived) public votes;\n  mapping(address => bool) public voters;\n\n\n  bool _isActive = true;\n  // I just decide to no pass arguments to the constructor as array is not supported. \n  // Also place the data inside the constructor method is a guarantee\n  constructor()   {\n    addCandidate(1, 'John Doe');\n    addCandidate(2, 'Jane Doe');\n    addCandidate(3, 'Gary Jeff');\n\n  }\n\n  modifier _checkActive() {\n    require (_isActive);\n    _;\n  }\n  \n\n  function addCandidate(uint32 _number, string memory _name) private {\n    candidates[_number] = Candidate(_number, _name);\n  }\n\n  function vote(uint _candidate)  _checkActive public {\n    require(validCandidate(_candidate),\"Invalid Candidate\");\n    require(!voters[msg.sender], \"You can't vote multiple times\");\n    voters[msg.sender] = true;\n    votes[_candidate].counter ++;\n  }\n\n  // Views functions not use gas \n  // Return total Votes\n  function countVotes(uint _candidate) view public returns (uint) {\n    require(validCandidate(_candidate),\"Invalid Candidate\");\n    return votes[_candidate].counter;\n  }\n\n  // work around to check if the candidate is in the list\n  function validCandidate(uint _candidate) view public returns (bool) {\n    if(candidates[_candidate].id != 0){\n      return true;\n    }else{\n      return false;\n    }\n  }\n\n  function setActivity(bool isActive) onlyOwner public {\n    // restrict access to this function\n    _isActive = isActive;\n  }\n\n}",
  "sourcePath": "/Users/leonmg/Projects/votingDapp/contract/contracts/Voting.sol",
  "compiler": {
    "name": "solc",
    "version": "0.8.1+commit.df193b15.Emscripten.clang"
  },
  "schemaVersion": "3.4.6",
  "updatedAt": "2022-03-29T20:15:59.853Z",
  "networkType": "ethereum",
  "devdoc": {
    "kind": "dev",
    "methods": {
      "owner()": {
        "details": "Returns the address of the current owner."
      },
      "renounceOwnership()": {
        "details": "Leaves the contract without owner. It will not be possible to call `onlyOwner` functions anymore. Can only be called by the current owner. NOTE: Renouncing ownership will leave the contract without an owner, thereby removing any functionality that is only available to the owner."
      },
      "transferOwnership(address)": {
        "details": "Transfers ownership of the contract to a new account (`newOwner`). Can only be called by the current owner."
      }
    },
    "version": 1
  },
  "userdoc": {
    "kind": "user",
    "methods": {},
    "version": 1
  }
}